:020000040800F2
:100000000808002005010008EF370008212B000830
:10001000ED3700089B0A0008353F0008000000008B
:10002000000000000000000000000000F33700089E
:10003000D30A000800000000F137000895380008D6
:100040001F0100081F0100081F0100081F01000810
:100050001F0100081F0100081F0100081F01000800
:100060001F0100081F0100081F0100081F010008F0
:100070001F0100081F0100081F0100089D0A000859
:100080001F0100081F0100081F0100081F010008D0
:100090001F0100081F0100081F0100081F010008C0
:1000A0001F0100081F0100081F0100081F010008B0
:1000B0001F010008F93800081F0100081F0100088F
:1000C0001F0100081F0100081F0100081F01000890
:1000D0001F010008FD3E0008293F00081F0100081D
:1000E0001F0100081F0100081F010008DFF810D0E1
:1000F00000F096FC00480047C14D0008AFF30080B7
:10010000080800200648804706480047FEE7FEE74B
:10011000FEE7FEE7FEE7FEE7FEE7FEE7FEE7FEE7B7
:10012000F7380008ED000008202A04DB203A21FA05
:1001300002F00021704721FA02F3D040C2F1200200
:100140009140084319467047D2B201E000F8012BF4
:10015000491EFBD270470022F6E710B513460A4647
:1001600004461946FFF7F0FF204610BDF0B480EAC0
:100170000102D40F4200B2EB410F02D20246084600
:1001800011464A0042D0C30DDDB2C1F3C752AD1AC9
:10019000202D35DAC1F3160141F4000204B15242B8
:1001A000C5F1200602FA06F12A411044B3EBD05FF4
:1001B00023D0C4B1012DA0EBC35009DCF0BC4FF03B
:1001C000004202EAC352DBB200F5000000F033BB8C
:1001D000400000F1807000EBC350A0F1807040EA55
:1001E000D170490009E0490841EAC071A0EBC35051
:1001F00000F50000400800EBC350F0BC00F012BB5B
:100200006142012202EB4101001BF6E7F0BC70479E
:1002100081F00041AAE780F00040A7E780EA0102F0
:1002200010B502F00043400022D04A001FD0010E5A
:1002300001EB1261C0F35600C2F3560240F4000015
:1002400042F40002A0FB022000047F39140400D015
:10025000401C50EA124001D44000491EC2B20C06B4
:1002600004EBD010401C4008802A02D003E000209C
:1002700010BD20F00100002900DA0020184310BD55
:1002800030B480EA010202F0004530F0004221F073
:10029000004013D090B1C30DD40DC2F31601C0F3CA
:1002A0001600E41A41F4000140F400027D3491424A
:1002B00001D3641C00E04900002C02DA30BC0020AD
:1002C00070474FF400000023914201D3891A034381
:1002D00040084FEA4101F7D151B1914202D14FF0AC
:1002E000004105E002D24FF0010101E06FF0010191
:1002F00003EBC450284430BC00F094BA2DE9FE4F03
:10030000804681EA0300C00F0C46009021F00041B6
:1003100023F00045B8EB0200A94105D24046214632
:1003200090461C460B46024623F00040104347D03F
:10033000270DC7F30A00C3F30A510290401A019037
:1003400040286BDAC3F3130040F4801B00989246F8
:1003500020B10023D2EB030A63EB0B0B0198594643
:10036000C0F14002504600F03CFA06460D465046A9
:100370005946019A00F044FA10EB0800614100244C
:1003800087EA115284EAE7731A4340D0009A62B3B5
:10039000019A012A4FEA075215DC001B61EB0201AA
:1003A0004FF0004202EA0752CDE90042001C41F53D
:1003B000801132462B4600F07BFA03B0BDE8F08F87
:1003C00040462146F9E7001B61EB0201001C41F5A4
:1003D000801300185B412018A2F5001747EB0301BA
:1003E00040EAD570B6196D4111E06D084FEA360646
:1003F00045EAC0754FEA0752001B61EB0201001C81
:1004000041F5801149084FEA300000195141324648
:100410002B4603B0BDE8F04F00F03BBA0098012234
:1004200040000023D0EB020263EBE073009821460A
:100430004FEAE074B8EB000061EB0401E9E783F0F8
:1004400000435BE781F0004158E72DE9FE4F81EA68
:10045000030404F0004421F0004100944FF0000B2D
:1004600023F0004350EA01045ED052EA03045BD05B
:10047000C3F30A54C1F30A552C44A4F2F334019493
:10048000A0FB0254C1F3130141F48011C3F3130321
:1004900043F4801301FB024400FB034E840A970AD5
:1004A00044EA815447EA8357A4FB076802958D0A02
:1004B00005FB07854FEA932C04FB0C542705029D8E
:1004C0004FEA065847EA1637B5EB08056EEB070CFE
:1004D000870E920E47EA811742EA8312A7FB0201B8
:1004E000B6EB0B0164EB00042B0D43EA0C335E18F2
:1004F00044EB1C50DA465146E7FB0201C5F31304F6
:100500004FEA0B3343EA14534FEA0432019C43EAA7
:100510000603A4F10C040294009CCDE900B400F0A1
:10052000C7F903B0BDE8F08F00200146F9E72DE9D7
:10053000F04D81EA030404F0004B21F0004514461D
:100540004FF0000A23F0004150EA050220D054EA9F
:1005500001021DD0C5F30A570246C5F31303C1F3C8
:100560001300C1F30A5640F4801543F48013A7EB3F
:100570000608101BD64608F2FD3873EB050002D3BF
:1005800008F1010801E092185B41B8F1000F03DAAD
:1005900000200146BDE8F08D00204FF48011064692
:1005A00084460EE0171B73EB050705D3121B63EBA4
:1005B000050306434CEA010C49084FEA3000921843
:1005C0005B4150EA0107EDD152EA030012D082EA02
:1005D000040083EA0501084305D0101BAB4106D295
:1005E0000122002306E000224FF0004302E06FF0FA
:1005F000010253101AEB06004CEB085110EB0A00F5
:1006000041EB0B01BDE8F04D00F043B970B521F0AE
:10061000004303430CD0C1F30A550024D5EB040575
:1006200064EB0403D617AD1AB34102DB0020014688
:1006300070BD201841EB025170BDC10F80EAE0701F
:100640000844CA079623002100F0F5B80EB5C10F83
:1006500080EAE0700844CA07002140F233438DE885
:100660000E000A460B4600F023F903B000BD0EB59C
:1006700040F2334102910021CDE900110A460B46B8
:1006800000F016F903B000BD00F0004220F0004079
:10069000C10DC0F3160040F400007F2901DA0020EC
:1006A0007047962903DCC1F19601C84001E09639F4
:1006B0008840002AF4D040427047000030B5041E44
:1006C00071F1000404DB4FF00044404264EB01018F
:1006D000141E73F1000405DB1C464FF00043524228
:1006E00063EB04038B4208BF824230BD30B5041E69
:1006F00071F1000404DB4FF00044404264EB01015F
:10070000141E73F1000405DB1C464FF000435242F7
:1007100063EB0403994208BF904230BD01F00043EF
:1007200030B421F0004150EA010206D00A0DA2F5D2
:100730006072C1F31301002A02DC30BC0020704754
:10074000440F44EAC104C100E01830BC00EBC250C1
:1007500000F068B830B50B46014600202022012485
:1007600009E021FA02F59D4205D303FA02F5491B7F
:1007700004FA02F52844151EA2F10102F1DC30BD95
:100780002DE9F05F0546002092469B4688460646C6
:10079000814640241BE02846414647462246FFF753
:1007A000C3FC53465A46C01A914110D3114618460D
:1007B000224600F016F82D1A67EB01084F46224634
:1007C0000120002100F00DF817EB00094E41201E1A
:1007D000A4F10104DFDC484631462A464346BDE821
:1007E000F09F202A04DB203A00FA02F10020704733
:1007F0009140C2F1200320FA03F31943904070475F
:10080000202A06DBCB17203A41FA02F043EAE073D4
:1008100006E041FA02F3D040C2F1200291400843C1
:10082000194670470029A8BF7047401C490008BFFF
:1008300020F00100704710B4B0FA80FC00FA0CF010
:1008400050EA010404BF10BC704749B1CCF1200448
:1008500021FA04F411FA0CF118BF012121430843D5
:10086000A3EB0C01CB1D4FEA00614FEA102042BF01
:10087000002010BC704700EBC35010440029A4BFF7
:1008800010BC7047401C490008BF20F0010010BC9C
:10089000704710B5141E73F1000408DA401C41F1D2
:1008A000000192185B411A4301D120F0010010BDF4
:1008B0002DE9F04D92469B4611B1B1FA81F202E06A
:1008C000B0FA80F220329046FFF78BFF04460F46C5
:1008D00040EA0A0041EA0B0153465A46084313D046
:1008E000114653EA010019D0C8F140025046FFF703
:1008F0001BFC05460E46504659464246FFF771FF1F
:10090000084305D0012004E020463946BDE8F08DBB
:100910000020054346EAE0762C4337430A986305F6
:10092000E40AA0EB08000022FD0A44EA47540A301A
:1009300002D500200146E9E7010510196941DDE90A
:10094000084500196941BDE8F04DA2E72DE9F04DD9
:1009500000231A461B1A8A4103DB00200146BDE82A
:10096000F08DC1F30A52C1F3130141F480154FF029
:10097000000BD10702D100186D41521E002704461A
:1009800040F2FF11384601EB620A3E4680460246BD
:1009900000204FF48011FFF7C7FBC2197141BB184B
:1009A00046EB0100B4EB030C75EB000C04D3E41A26
:1009B00065EB000517460E46241908F101006D414C
:1009C00080463428E3DDF91946EB0600091BA841EF
:1009D00003D24FF0FF32134601E0002213461BEB17
:1009E000070046EB0A51BDE8F04DFFF752BFC1F3D7
:1009F0000A52C1F3130140F2FF3341F480119A42CD
:100A000002DA00200146704740F233439A42A2F2D4
:100A1000334202DC5242FFF787BBFFF7E2BE000021
:100A2000064C074D06E0E06840F0010394E807003B
:100A300098471034AC42F6D3FFF75CFB684F0008D0
:100A4000884F000870B58C1810F8015B15F007038B
:100A500001D110F8013B2A1106D110F8012B03E057
:100A600010F8016B01F8016B5B1EF9D12B0705D45F
:100A70000023521E0DD401F8013BFAE710F8013BA8
:100A8000CB1A921C03E013F8015B01F8015B521EC4
:100A9000F9D5A142D8D3002070BDFEE7014800F08F
:100AA000C9B80000C403002030B590F840500124BC
:100AB000AC40C56B6C60046863604368102B0368CE
:100AC00003D099600068C26030BD9A600068C16060
:100AD00030BD704772B6FEE72DE9F041134C064673
:100AE0000D46E06C081AFFF7A8FD616AFFF796FB58
:100AF00080462846FFF7A1FD216AFFF78FFB0746D6
:100B0000A06C301AFFF799FDE169FFF787FBA16937
:100B1000FFF72CFB3946FFF729FB4146FFF726FB81
:100B2000FFF7B2FDC4E91265BDE8F0816400002062
:100B30000021022807D0042804D104480268506A22
:100B4000516200B270470248F8E70000F40200204A
:100B50006402002010B590F821100022022905D06F
:100B60000421816380F82020012010BD01680B68FA
:100B700023F00E030B6001680B6823F001030B6088
:100B800090F84030C46B012101FA03F3636080F8F0
:100B9000211080F82020104610BD000010B590F8FC
:100BA00021100024022903D00421816301243DE0A7
:100BB00001680A6822F00E020A6001680A6822F0E1
:100BC00001020A601A4A0168914201D1012121E023
:100BD000174A1432914201D110211BE0144A2832E5
:100BE000914201D1891515E0114A3C32914201D15F
:100BF00089140FE00E4A5032914202D14FF48031F5
:100C000008E00B4A6432914202D14FF4801101E0B6
:100C10004FF08071064A083A5160012180F8211096
:100C2000002180F82010416B01B18847204610BD9B
:100C3000080002402DE9F05FC16B0C6801680B6889
:100C4000D0F840C0042202FA0CF2494DDFF824A18A
:100C5000494E4A4FDFF828B1DFF828E122422CD074
:100C60005A072AD50A68920603D40A6822F00402B9
:100C70000A600168A94201D1042219E0514501D15D
:100C8000402215E0B14202D14FF4806210E0B94237
:100C900002D14FF480420BE0594502D14FF480223B
:100CA00006E0714502D14FF4800201E04FF080620E
:100CB0002F4908394A60C16A3BE04FF0020808FA40
:100CC0000CF818EA040F4FF000094FF0010235D07C
:100CD0005FEA837832D50B689B0605D40B6823F056
:100CE0000A030B6080F821200168A94201D1022289
:100CF00019E0514501D1202215E0B14202D14FF453
:100D0000007210E0B94202D14FF400520BE0594595
:100D100002D14FF4003206E0714502D14FF40012C7
:100D200001E04FF00072124908394A6080F82090C3
:100D3000816A00291AD0BDE8F05F0847082505FA46
:100D40000CF5254212D01B0710D50B6823F00E03BB
:100D50000B6090F84010C36B02FA01F15960826396
:100D600080F8212080F82090016BE2E7BDE8F09F39
:100D7000080002401C0002403000024044000240D3
:100D8000580002406C00024030B528B308C813492F
:100D900014221944B1FBF2F18900C1631049816347
:100DA000022141771A6843F6F0718A43D0E90014B2
:100DB0002143D0E902452C4321430469214344697E
:100DC00021438469214311431960002141630122B9
:100DD00042770177084630BD012030BDF8FFFDBFE6
:100DE0000000024070B5044690F82000002501285C
:100DF0000CD0012084F8200094F821600020012EFE
:100E000006D084F820000225284670BD022070BD5F
:100E1000022684F82160A0632068066826F0010697
:100E200006602046FFF740FEE06A0028206801685F
:100E300002D041F00E0106E021F0040101602068BB
:100E4000016841F00A0101602068016841F0010178
:100E50000160D9E72DE9F84FDFF8B891002409F1D6
:100E6000040A0AF1040B23460F270BF1040EC9E014
:100E70000125A5402A40AA427DD1674ED1F804C081
:100E8000ACEB0608B44532D014DCBCF1030F3AD009
:100E900009DCBCF1000F2AD0BCF1010F1CD0BCF161
:100EA000020F31D11DE0BCF1110F17D0BCF1120FB0
:100EB0002AD119E0B8F5881F19D006DCB8F5803FB3
:100EC00015D0B8F5801F1FD111E0B8F5001F0ED066
:100ED000B8F5041F18D10AE0CB6815E0CB681B1DDC
:100EE00012E0CB6808330FE0CB680C330CE08B6862
:100EF0002BB1012B4FF0080303D0456104E004231C
:100F000002E0056100E00023FF2A01D8064601E067
:100F100000F104064FEA840501D9A5F12005D6F8B1
:100F2000008007FA05FC28EA0C0803FA05F548EAF0
:100F30000508C6F800804D68ED0062D5374DAE69F2
:100F400046F00106AE61AD6924F0030605F0010527
:100F50000095334D06EB050CDCF80850A607360F5C
:100F600007FA06F825EA0805DFF8B880404503D1FE
:100F70004FF0000817E044E0DFF8AC80404502D1B4
:100F80004FF001080FE0DFF8A480404502D14FF098
:100F9000020808E0DFF89880404502D14FF00308CE
:100FA00001E04FF0040808FA06F848EA0508CCF812
:100FB00008804D68D9F80060ED034D4601D5164311
:100FC00000E096432E604D68DAF80060AD035546A8
:100FD00001D5164300E096432E604D68DBF80060B3
:100FE000ED025D4601D5164300E096432E604D6844
:100FF000DEF80060AD02754601D5164300E0964369
:101000002E60641C0D682A46E5407FF431AFBDE8D0
:10101000F88F000000040140000011100010024091
:101020000000014000080140000C01400010014098
:10103000001401400AB1016170470904FBE7000098
:1010400001488068704700005400002070B504001B
:1010500025D094F83D00002520B984F83C50204666
:1010600000F078FA242084F83D002068016821F01F
:10107000010101602068016841F4004101602068BD
:10108000016821F40041016000F0C2FB4D4A616833
:10109000914201D84C4900E04C49884201D20120DC
:1010A00070BD4B492368B0FBF1F15E6826F03F0646
:1010B0000E435E606368934206D94FF496735943BA
:1010C0004FF47A73B1FBF3F12368491C1E6A26F0D2
:1010D0003F06314319626168914210D84900401EB1
:1010E000B0FBF1F2521CC2F30B02042A01D204201D
:1010F00022E0B0FBF1F0401CC0F30B001CE0A26842
:10110000F2B301EBC10303EB0116431EB3FBF6F38D
:101110005B1C43F480431B0549D092B301EBC10231
:1011200002EB0111401EB0FBF1F0401CC0F30B00BC
:1011300040F4804040F400402168CA694CF6FF73D7
:101140009A431043C861D4E907100143206802683C
:1011500022F0C00211430160D4E903010143206879
:10116000826848F2FF339A4311438160D4E9050154
:1011700008432168CA6822F0FF021043C86001E0FA
:101180000EE016E02068016841F00101016025646D
:10119000202084F83D00256384F83E50002070BD77
:1011A00001EB4106431EB3FBF6F35B1CB3E70120E2
:1011B000C2E701EB4101401EB0FBF1F0401CC0F35F
:1011C0000B00B7E7A086010080841E0000093D00E7
:1011D00040420F002DE9FF4F83B00025DDE9107973
:1011E0009A4693460446DDF848800095FFF728FFAD
:1011F000064694F83D0020287CD119230122854918
:101200002046009601F09CFD0028F5D194F83C00A2
:1012100001286FD0012084F83C0020680168C907CC
:1012200003D1016841F0010101602068016821F4E7
:1012300000610160222084F83D00402084F83E00D7
:1012400025646762A4F82A90608D20857248E06268
:10125000CDE9008653465A462046049901F078FCB1
:1012600000287DD1208DDFF8B491202768B10128B6
:1012700014D00228206801681ED041F4806101600A
:101280002068416980690090B6E020684169816901
:101290000091016841F400710160ADE020680168CF
:1012A00021F48061016072B6206841698169009112
:1012B000016841F400710AE041F40061016072B616
:1012C0002068416981690091016821F480610160B1
:1012D00062B691E0032868D801280CD00228434662
:1012E0004FF000024946204600960FD001F028FD3D
:1012F000B0BB10E08BE032464146204601F09FFD36
:1013000070BB20680069616A08706CE001F018FD2C
:1013100030BB72B634E02068016821F4806101605E
:1013200072B620680069616A0870606A401C606279
:10133000208D401E2085608D401E6085384846F215
:10134000A8110068B0FBF1F0C0EBC00000EB80001A
:101350000090401E009008D020684069C04300E023
:1013600029E040070CD50098F3E744F8305F677335
:10137000A573206940F02000206162B625731AE051
:101380002068016841F40071016020680069616AA9
:101390000870606A401C6062218D491E2185618D44
:1013A000491E618562B621681BE0324641462046EF
:1013B00001F045FD18B1012007B0BDE8F08F2068AD
:1013C0000069616A0870606A401C6062218D491E74
:1013D0002185618D491E618521684A69D243520782
:1013E0000AD409690170606A401C6062208D401E49
:1013F0002085608D401E6085208D00287FF46AAFB7
:1014000084F83D7084F83E5084F83C50D4E70220C4
:10141000D2E70000020010000000FFFF04000100FE
:10142000600000202DE9FF4F83B09A46DDE9119757
:1014300093460446DDF84080FFF702FE054694F827
:101440003D0020287FD119230122404920460095E4
:1014500001F076FC002876D194F83C00012872D087
:10146000012084F83C0020680168C90703D10168A5
:1014700041F0010101602068016821F40061016010
:10148000212084F83D00402084F83E000026266498
:10149000C4F82480A4F82A90608D20852C48E0624E
:1014A000CDE9007553465A462046049901F0CEFB1B
:1014B00070B930E02A463946204601F0F3FC58B1B5
:1014C000206C042804D12068016841F40071016097
:1014D000012007B0BDE8F08F606A216800780861DC
:1014E000606A401C6062218D491E89B22185628D2F
:1014F000521E628522685369DB435B070BD469B1D6
:1015000000781061606A401C6062208D401E20855A
:10151000608D401E6085208D0028CBD12A4639463B
:10152000204601F0E7FB0028CAD154F83D0B0168C2
:1015300041F400710160202004F81E09E677667707
:101540000020C6E7FFE70220C3E70000020010000A
:101550000000FFFF10B586B00021009101910291BB
:1015600003910068104988421BD1104CA06940F0DB
:101570000800A061A069694600F0080004904FF4DB
:101580004060009012200190032003900848FFF76C
:1015900061FCE06940F48000E061E06900F48000F3
:1015A000049006B010BD000000580040001002403A
:1015B000000C014002488168027811448160704744
:1015C00054000020074810B5016841F01001016087
:1015D000032000F075F80F2000F006F800F024F862
:1015E000002010BD0020024070B50D4D04464FF4A0
:1015F0007A712878B1FBF0F00A490968B1FBF0F084
:1016000000F0ECFA48B9102C07D200222146501EF7
:1016100000F036F800206C6070BD012070BD000045
:1016200054000020600000200C4808B5816941F09A
:1016300001018161816901F001010091C16941F0FD
:101640008051C161C06900F0805000900448416839
:1016500021F0E06141F00071416008BD00100240DE
:1016600000000140002809DB00F01F020121914029
:101670004009800000F1E020C0F800117047000030
:10168000F0B40E4B1B680C46C3F30223C3F10705ED
:10169000042D00D90425191D072901D2002300E0DB
:1016A000DB1E012606FA05F1491E214099409E40A5
:1016B000761E16403143F0BC02F0CABC0CED00E0CF
:1016C000064900F0070208684FF6FF03184040EA99
:1016D0000220034A10430860704700000CED00E050
:1016E0000000FA052DE9F0470F46050061D0434E92
:1016F000306800F00700B84209D2306820F00700D7
:1017000038433060306800F00700B84251D1286893
:101710003B4C810712D5400703D5606840F4E06078
:1017200060602878000703D5606840F4605060600E
:101730006068A96820F0F000084360602878C0075E
:1017400028D06868012810D02168022810D08907A5
:1017500000292EDA616821F0030101436160FFF77F
:101760006FFC804641F288390DE021688903EFE77C
:101770008901EDE7FFF764FCA0EB0801494502D9B8
:101780000320BDE8F0876068696800F00C00B0EBEA
:10179000810FEFD1306800F00700B8420BD93068F4
:1017A00020F0070038433060306800F00700B8428E
:1017B00001D00120E5E72878400705D56068E96891
:1017C00020F4E060084360602878000706D5606870
:1017D000296920F4605040EAC100606000F038F8E8
:1017E0006168084AC1F30311515CC84006490860AA
:1017F00006480068FFF7F8FE0020C2E7002002401C
:1018000000100240B04E0008600000205800002088
:101810000448054900684968044AC1F30221515C43
:10182000C84070476000002000100240C04E000811
:101830000448054900684968044AC1F3C221515C63
:10184000C84070476000002000100240C04E0008F1
:1018500012A185B00FC98DE80F0014A0144A0068CA
:1018600004905168134801F00C03042B10D0082B8E
:101870000ED1C1F38343C9031DF803000AD5516893
:1018800004AAC1F34041515C0A4A5043B0FBF1F055
:1018900005B0704708494843FAE700000203040511
:1018A000060708090A0B0C0D0E0F101001020000AC
:1018B0000010024000127A0000093D002DE9F84FA7
:1018C000040070D02078C04DC00749D06868C0F3CC
:1018D0008100012807D06868C0F38100022809D17F
:1018E0006868C00306D52868800339D56068002879
:1018F000E7D035E06068B0F5803F0BD010B1B0F5AF
:10190000A02F11D0286820F480302860286820F4A7
:10191000802002E0286840F480302860606890B140
:10192000FFF78EFB06460AE0286840F48020286016
:10193000F0E700BFFFF784FB801B642873D828689A
:101940008003F7D50CE0FFF77BFB064605E000BF00
:10195000FFF776FB801B6428F0D828688003F7D453
:1019600020789A4E80074FF001094FF0000839D5D2
:10197000686810F00C0F07D06868C0F38100022877
:1019800009D16868C00306D42868800714D5206987
:10199000012808D110E02069B0B1C6F80090FFF727
:1019A0004FFB074605E00AE1FFF74AFBC01B022890
:1019B000C4D828688007F7D52868616920F0F80046
:1019C00040EAC10028600DE0C6F80080FFF738FB50
:1019D000074604E0FFF734FBC01B022823D8286821
:1019E0008007F7D4207800072CD57948A169D9B1B0
:1019F000C0F80090FFF724FB074604E0FFF720FB48
:101A0000C01B02280FD8686A8007F7D571484FF4C9
:101A1000FA510068B0FBF1F0009000BF0098411E41
:101A20000091FAD20EE080E0C0F80080FFF708FBDA
:101A3000074604E0FFF704FBC01B022875D8686A5C
:101A40008007F7D42078400760D5E8690027C000F8
:101A500008D4E86940F08050E861E869012700F0A7
:101A6000805000905C480168C90513D40168834622
:101A700041F480710160FFF7E3FA824606E000BF9F
:101A8000FFF7DEFAA0EB0A0064284ED8DBF800006E
:101A9000C005F5D5E06801280AD008B1052813D0A3
:101AA000286A20F001002862286A20F0040002E081
:101AB000286A40F001002862E06841F2883B98B152
:101AC000FFF7BEFA82460BE0286A40F00400286265
:101AD000EEE700BFFFF7B4FAA0EB0A0159455AD868
:101AE000286A8007F6D50CE0FFF7AAFA824605E0DF
:101AF000FFF7A6FAA0EB0A0159454CD8286A8007DF
:101B0000F6D41FB1E86920F08050E861E06988B33D
:101B10006968C1F38101022944D00228C6F86080B7
:101B200004D0FFF78DFA044638E034E0FFF788FA76
:101B3000074604E0FFF784FAC01B02282BD8286868
:101B40008001F7D4206AB0F5803F05D16868A168AC
:101B500020F4003008436860D4E90801084369684C
:101B600021F4741108436860C6F86090FFF768FAC2
:101B7000044606E025E000BFFFF762FA001B0228DA
:101B800009D828688001F7D51BE000BFFFF758FA95
:101B9000001B022802D90320BDE8F88F28688001C5
:101BA000F4D40EE00128F7D06868226A00F480318E
:101BB000914204D1616A00F47010884201D0012082
:101BC000EAE70020E8E7000000100240000042427F
:101BD00080044242600000200070004010B5401EAA
:101BE000B0F1807F01D3012010BD4FF0E02460618F
:101BF0000F21601702F02CFA0020A061072020615D
:101C0000002010BD7047704710B590F83C20012AA5
:101C100022D0012280F83C20CA688C6822F44072ED
:101C200022434C6822F4806222430C6822F4006252
:101C300022430C6922F4805222434C6922F4005260
:101C40002243C969002322F480420A4301684A649E
:101C500080F83C30002010BD022010BD70B590F817
:101C60003C20012A26D0012480F83C40022280F842
:101C70003D2003685A689D6822F070060A68324366
:101C80005A600D4B02689A4208D0B2F1804F05D0DD
:101C90000A4B9A4202D00A4B9A4204D1496825F075
:101CA00080031943916080F83D40002180F83C108A
:101CB000084670BD022070BD002C014000040040A9
:101CC0000008004010B5040003D094F83D0010B1A6
:101CD00007E0012010BD002084F83C00204600F001
:101CE0001FF8022084F83D00211D206801F00AFE43
:101CF000012084F8460084F83E0084F83F0084F810
:101D0000400084F8410084F8420084F8430084F8DD
:101D1000440084F8450084F83D00002010BD000018
:101D200000B585B0002100910191029103911A4AFA
:101D300001681A48914209D1816941F400618161C9
:101D4000806900F40060049005B000BD144A91421F
:101D5000FAD1C16941F00201C161C16901F002011A
:101D60000491816941F0040181618069694600F054
:101D70000400049080200090022001900390094804
:101D8000FFF768F8002211461D20FFF779FC1D209F
:101D9000FFF768FCD8E70000002C0140001002406B
:101DA000000400400008014090F83D10012901D0D6
:101DB00001207047022180F83D100168CA6842F096
:101DC0000102CA6000680B49884208D0B0F1804F18
:101DD00005D00949884202D00849884204D1816867
:101DE00001F00701062903D0016841F001010160FB
:101DF00000207047002C0140000400400008004013
:101E000070B5044690F83C00012817D0012584F8ED
:101E10003C50022084F83D002068826822F077025E
:101E200022F47F4282600868502830D00DDC2028E0
:101E30004DD005DC98B310283BD148E0022070BD9E
:101E4000302844D0402834D139E0602828D0702888
:101E500006D0B0F5805F2CD0B0F5005F29D10AE044
:101E6000CB68D1E90121206801F08FFD20688168ED
:101E700041F0770109E0CB68D1E90121206801F048
:101E800084FD2068816841F48041816011E0CA6866
:101E90004968206801F02EFE5021206807E016E016
:101EA000CA684968206801F036FE6021206801F0A8
:101EB00076FD84F83D50002084F83C0070BDCA686F
:101EC0004968206801F016FE40212068EFE722688B
:101ED00001461046EBE72DE9F0410D46040003D022
:101EE00094F83D0018B108E00120BDE8F081002021
:101EF00084F83C00204600F041F8022084F83D00C0
:101F00002068816844F2070291438160211D2068A6
:101F100001F0F8FC226890689169166A2B68AF6935
:101F2000034340F20330814341EA0721A868EF6987
:101F300008434FF6FC418843E96840EA0720014323
:101F400028692F6A000140EA0730084369686D6913
:101F500026F0220646EA051529439360226890611F
:101F600054F8460B0162012004F81F09E075207641
:101F7000E0762077A0750020B7E7000000B585B0B7
:101F80000021009101910291039101681A48B1F179
:101F9000804F1BD0194A914216D1C16941F004010A
:101FA000C161C16901F004010491816941F0080136
:101FB00081618069694600F008000490C0200090AB
:101FC0000F4800BFFEF746FF05B000BDC16941F0F4
:101FD0000101C161C16901F001010491816941F010
:101FE000040181618069694600F0040004900320C7
:101FF00000900448E6E7000000100240000800409E
:10200000000C01400008014070B590F83E600446A5
:1020100090F83F5090F8423090F84320022021B1D0
:1020200004290ED0012E1BD114E0012E18D1012B52
:1020300016D184F83E0084F8420001220021206875
:1020400020E0012D0CD1012A0AD184F83F0084F848
:10205000430014E0012D03D1012B01D1012A01D04D
:10206000012070BD84F83E0084F83F0084F84200EF
:1020700084F8430001220021206801F079FC01224C
:102080000421206801F074FC2068016841F001011E
:102090000160002070BD704770B50446006801699A
:1020A0004FF00005C943890715D4C168C9438907A2
:1020B00011D4E91E01610120207720688069800722
:1020C000204602D0FFF7E7FF04E000F0BFF820460B
:1020D00000F04EF9257720680169C943490717D4F4
:1020E000C168C943490713D46FF00401016102209C
:1020F00020772068806910F4407F204602D0FFF7E7
:10210000CAFF04E000F0A2F8204600F031F925777C
:1021100020680169C943090716D4C168C943090782
:1021200012D46FF008010161042020772068C06993
:102130008007204602D0FFF7AEFF04E000F086F8EB
:10214000204600F015F9257720680169C943C906C2
:1021500017D4C168C943C90613D46FF010010161D7
:10216000082020772068C06910F4407F204602D004
:10217000FFF791FF04E000F069F8204600F0F8F85E
:10218000257720680169C943C90708D1C168C943D7
:10219000C90704D1891E0161204600F039F9206881
:1021A0000169C943090609D4C168C943090605D4B0
:1021B0006FF0800101612046FFF724FD206801696E
:1021C000C943490609D4C168C943490605D46FF01B
:1021D00040010161204600F007FA20680169C94307
:1021E00089060BD4C168C943890607D46FF0200162
:1021F00001612046BDE87040FFF705BD70BD0000DD
:1022000000B585B000210091019102910391006811
:102210000B49884212D10B48816941F00401816168
:102220008069694600F0040004904FF4106000904B
:102230000220019003900448FEF70CFE05B000BD9B
:10224000002C01400010024000080140704770B5AA
:10225000044690F83C000D4601280AD0012084F87D
:102260003C0042B1042A18D0082A2AD00C2A4DD1A9
:1022700039E0022070BD206801F09AFB2068816976
:1022800041F0080181612068816921F004018161C8
:10229000206881692A69114311E0206801F0B0FBD0
:1022A0002068816941F4006181612068816921F4BD
:1022B00080618161206881692A6941EA0221816126
:1022C00024E0206801F0C8FB2068C16941F00801E2
:1022D000C1612068C16921F00401C1612068C16940
:1022E0002A69114311E0206801F0E2FB2068C1690E
:1022F00041F40061C1612068C16921F48061C1615C
:102300002068C1692A6941EA0221C161002084F87C
:102310003C0070BD10B5040003D094F83D0010B12E
:1023200007E0012010BD002084F83C00204600F0AA
:102330001EF8022084F83D00211D206801F0E2FA19
:10234000012084F8460084F83E0084F83F0084F8B9
:10235000400084F8410084F8420084F8430084F887
:10236000440084F8450084F83D00002010BD70470B
:102370007047000010B50446022249B104290ED06E
:10238000082913D094F84100012816D0012010BD6F
:1023900094F83E000128F9D184F83E200FE094F82B
:1023A0003F000128F2D184F83F2008E094F8400073
:1023B0000128EBD184F8402001E084F8412001227B
:1023C000206801F0D5FA0F492068884203D1426C99
:1023D00042F4004242642068884208D0B0F1804F45
:1023E00005D00949884202D00849884204D1816851
:1023F00001F00701062903D0016841F001010160E5
:10240000002010BD002C01400004004000080040E6
:102410002DE9F0416649674F674D684C4FF400560F
:10242000884275D10220FEF783FB20630420FEF76B
:102430007FFB60632946624800F0D6FED5E91201B1
:1024400000221346FEF73AF901D1288C68B1002228
:1024500031463846FEF7EEFD00215A48FFF78AFF65
:102460000C215848FFF786FF04E001223146384628
:10247000FEF7E0FDB5F92000FD30FEF7DEF8064678
:10248000D5E91201FEF74AF9014632464E4801F0FD
:10249000A1FDA063E068012801D040B10EE02169F0
:1024A00061B9616951B9A16941B948490BE0216934
:1024B000012903D1616909B9A16919B121690143F0
:1024C00003D007E04249616010E06269012A01D14E
:1024D000A2691AB16269114303D007E041F2883161
:1024E00003E0A169012901D13A49A16021694FF0B6
:1024F0000006084361690843A169084301D1666089
:10250000A660E06928B1206A01F074F9606001E01A
:102510004CE066602948001D01F0AEF96068FEF7E6
:10252000B3F8D4E90C1201F007FDE063B5F924001B
:10253000A16801F003FB2064D4E90E01401A606435
:10254000B4F90210B4F90000FEF7C6FAD4E910217C
:10255000891A0844A062B4F90210B4F90000FEF729
:10256000BBFAD4E910211144081A1449E0622C3155
:10257000081F00F083FDD5E9122317A001F044FDE8
:10258000D5E912010022164BFEF7B0F806D3D5E9C3
:1025900012010022134BFEF791F801D2A662E66207
:1025A000D4E90A01BDE8F04100F07EBDBDE8F0814C
:1025B000AC0200200010014070010020000000204B
:1025C000C80100201C020020ED99B9BF0000FA45A7
:1025D0000000FAC578ECFFFF25662C300D0A0000DC
:1025E00000004940000049C0704770477047000034
:1025F000F8B5026804461068D168536910F00F0FEF
:102600004FF0000553D003F0010601F490773743F3
:102610005FD0C20705D0CA0503D5226C42F0010283
:102620002264420705D5DA0703D0226C42F0020289
:102630002264820705D5DA0703D0226C42F0040237
:102640002264020707D501F02002324303D0226C36
:1026500042F008022264226C002A34D0800604D59D
:10266000880602D5204601F00BFB20684069216CEA
:10267000C0F38010090700D430B3204601F0DFFA20
:102680002068416949061BD5416921F0400141613B
:10269000A06BA8B158494163A06BFEF77FFA0028F0
:1026A00011D0A06B416B01B0BDE8F0400847830634
:1026B0000FD58B060DD52046BDE8F84001F0E0BAF5
:1026C0002046FFF793FFF8BD2046FFF78FFF2564F4
:1026D000F8BD266B2023012E52D1C60650D5CE065A
:1026E0004ED5106850680090506940062AD5A16BFD
:1026F000086840680004000CEAD0A68D8642E7D93D
:10270000E0858869202818D0D06820F48070D060D7
:102710002068416921F0010141612068416921F08F
:102720004001416184F83E3025632068C16821F092
:102730001001C160A06BFEF70DFAA08DE18D401A6B
:1027400081B219E0A08DE18D401A81B2E08D0028A0
:10275000BED00029BCD0D06820F49070D060206832
:10276000426922F00102426184F83E30256320680C
:10277000C26822F01002C2602046FFF736FFF8BDA3
:1027800005062BD50D0629D594F83D002128F6D154
:10279000A068B0F5805F01D12069B0B1206A411C0A
:1027A0002162216800784860E08C401E0004000C23
:1027B000E084E4D12068C16821F08001C160206814
:1027C000C16841F04001C160F8BD206A0088C0F3D3
:1027D00008005060206A801C2062E5E74006F3D5BF
:1027E0004806F1D5D168204621F04001D16084F837
:1027F0003D3000F094F9F8BD713B000870B504005D
:1028000004D094F83D00002510B106E0012070BD11
:1028100084F83C50204600F023F8242084F83D0042
:102820002068C16821F40051C160204601F084FA9B
:102830002068016921F4904101612068416921F01B
:102840002A0141612068C16841F40051C1602564DA
:10285000202084F83D0084F83E00002070BD000078
:10286000F0B585B0002400940194029403940646C8
:10287000374F0368374902200322374DBB423AD114
:102880008B6943F480438B618B6903F48043049329
:102890008B6943F004038B618969039201F00401A1
:1028A00004910102CDE9001069462846FEF7D2FAEC
:1028B0002815CDE90004694628460294FEF7CAFAB5
:1028C000274D2648C5E900048020C5E902402020A4
:1028D0002C61C5E905402846EC61FEF755FA08B1C0
:1028E000FEF7F8F8B5630022114625206E62FEF768
:1028F000C7FE252028E01B4EB34227D1CB6943F405
:102900000033CB61CB6903F4003304938B6943F04C
:1029100004038B618969039201F00401049104218D
:10292000CDE9001069462846FEF794FA0820CDE963
:102930000004694628460294FEF78CFA00221146EC
:102940002620FEF79DFE2620FEF78CFE05B0F0BD8A
:1029500000380140001002400008014058000240C9
:10296000C40300200044004090F83E30202B0ED1DC
:1029700059B152B190F83C30012B08D0012380F8B6
:102980003C300023036301F033BA0120704702207A
:10299000704790F83E30202B0ED159B152B190F8CB
:1029A0003C30012B08D0012380F83C300023036326
:1029B00001F056BA012070470220704770B50546F5
:1029C0002248234C85422AD122480068FDF75CFE4C
:1029D000014621A001F018FB04F148000121027812
:1029E0000020303A052A04D2DFE802F003060B0F7C
:1029F0002B00E060206126E0C4E9031023E0A06121
:102A000007E0E060C4E90401F9E7E0602061C4E99F
:102A100005010F49012248310C48FFF7BAFF104861
:102A200085420DD10F480178AA2909D14178122990
:102A300006D181795B2903D141882180808860801B
:102A400070BDC4E903016061D9E700008003002084
:102A5000000000206400002025640D0A0000000032
:102A60003C03002058010020704700002DE9F84386
:102A7000044690F83D001F4616460D4620284CD1CE
:102A8000C5B1BEB194F83C00012846D0012084F8BD
:102A90003C004FF00008C4F84080212084F83D003D
:102AA000FEF7CEFAA6848146E684A068B0F5805F82
:102AB00003D004E00120BDE8F883206928B12E4648
:102AC0005FF0000584F83C800EE00026FAE78021E4
:102AD000204601F0E0F9A0B9AEB116F8010B21686B
:102AE0004860E08C401EE084E08C4B464FF00002D2
:102AF00000970028EBD14FF04001204601F0CBF9C0
:102B000030B10320D7E735F8020BC0F30800E6E741
:102B1000202084F83D000020CDE70220CBE770475D
:102B2000FEE701684A69D24352050FD46FF4806210
:102B30004A61002140F8301F2022427381730269EC
:102B400042F00402026101730120704700207047C7
:102B50002DE9F84F0446006889460B9D01689846A8
:102B6000174641F4806101602068016841F480717A
:102B7000016000954FF0011B0022594620460A9B38
:102B800000F0DEF84FF4007A40B120680068C0051C
:102B900001D5C4F840A00320BDE8F88F216809F0F2
:102BA000FE0008612B46284920460A9A00F0FCF8EE
:102BB000F0BB20684169806900902A4620460A9946
:102BC00000F070F940B1206C04283AD12068016807
:102BD00041F40071016034E0FEB2B8F1010F09D098
:102BE0002168380A08612A4620460A9900F05AF9F5
:102BF0000028E8D1206806612A4620460A9900F09C
:102C000051F90028DFD12068016841F4807101602A
:102C100000950022594620460A9B00F091F80028B2
:102C2000B3D1216809F0FF0040F00100086100E025
:102C300007E02B46044920460A9A00F0B5F8002820
:102C4000AAD00120A8E70000020001002DE9F84306
:102C5000044600680D46DDE9089701689846164667
:102C600041F4807101604B4600224FF00111204673
:102C7000009700F065F848B120680068C00502D5EB
:102C80004FF4007020640320BDE8F883216805F04C
:102C9000FE0008613B464A461549204600F084F88C
:102CA00088B920684169806900903A4649462046C3
:102CB00000F0F8F848B1206C042804D120680168BD
:102CC00041F4007101600120DEE7F5B2B8F1010FB7
:102CD00009D02168300A08613A464946204600F08A
:102CE000E1F80028E7D1206805610020CCE700006A
:102CF0000200010070B516460D4604460DE0204660
:102D0000FFF70FFF08B1012070BD681C05D0FEF76A
:102D100097F9801BA84207D835B120684069C043A5
:102D20004007ECD4002070BD002044F8300F202173
:102D30006173A073216941F0200121612073E2E7F2
:102D40002DE9F0471E4690460D460446C1F307475D
:102D5000DDF8209008E0701C06D0FEF771F9A0EBBA
:102D60000900B0420FD876B12068012F18D08069D1
:102D700025EA00000004000C14D000214145EAD0EF
:102D80000020BDE8F087002044F8300F2021617357
:102D9000A073216941F02001216120730120F0E737
:102DA0004069E5E70121E9E72DE9F0479A469146B8
:102DB0000E46044600254FF02008C1F3074725E0E2
:102DC00020684069C043400514D42068016841F47C
:102DD0000071016021686FF480604861256384F8A8
:102DE0003D8084F83E50206C40F00400206484F85C
:102DF0003C501FE0B9F1FF3F08D0FEF721F9A0EBEE
:102E00000A0149450CD8B9F1000F09D02068012FFB
:102E100013D0806926EA00000004000C0BD0CFE735
:102E200044F8305F84F80D80A573206940F02000DD
:102E3000206125730120BDE8F0874069EAE72DE9AC
:102E4000F041002590460E460446202717E04069D1
:102E5000C043C0060CD454F8301B6FF0100048611A
:102E600044F810596777A577206A2062257717E024
:102E7000FEF7E6F8A0EB0800B04208D83EB12068A3
:102E80004169C9434906E2D40020BDE8F08144F815
:102E9000305F6773A573206940F0200020612573BF
:102EA0000120F2E770B516460D4604460DE02046B7
:102EB000FFF737FE08B1012070BD681C05D0FEF792
:102EC000BFF8801BA84207D835B120684069C043CD
:102ED0000006ECD4002070BD002044F8300F202103
:102EE0006173A073216941F0200121612073E2E741
:102EF0002DE9FF5F96B024AD044695E88301D4E93F
:102F0000082308930692FDF79AFA3A464346FDF7DE
:102F10009CFAD4E90623FDF7F1F907911290D4E960
:102F200010A35246384641460993FDF78EFACDE983
:102F30000001D4E90C939B464A46FDF780FAD4E998
:102F40000E23CDE90B32FDF77AFAD4E90023FDF721
:102F5000D5F93A464346FDF778FAD4E90A23FDF756
:102F6000CDF905460E46DDE900014A465B46FDF710
:102F700069FA8B460490DDE90001DDE90B32FDF7CB
:102F800061FA0D910090D4E902013A464346FDF7FB
:102F90005CFA5246099BFDF7B1F9CDE90E01D4E97F
:102FA000042328463146FDF7A9F980468A460246A1
:102FB0000B4628463146FDF7BAFA81460F4642468F
:102FC00053460D990098FDF7B2FA80468A46DDE92E
:102FD0001801079B129AFDF732FA0B914A463B46BD
:102FE0001090FDF732FA079B129AFDF787F9C4E9B2
:102FF000060107911290404651460B9B109AFDF72F
:1030000024FA089B069AFDF779F9C4E908010498A7
:1030100006902A46334648463946FDF716FA2A46B0
:103020003346FDF70FFAC4E90A015B4648463946C4
:10303000069AFDF70AFA5B46049AFDF703FAC4E91B
:103040000C012A46334640465146FDF7FEF90D9BDA
:10305000009AFDF7F7F9C4E90E015B464046514678
:10306000069AFDF7F2F9DDE90E23FDF7EBF9C4E965
:103070001001079912981AB0BDE8F09F10B54FF4EF
:10308000E15304685A429C4201DD036002E094422D
:1030900000DA02600868984201DD0B6010BD9042C2
:1030A000FCDA0A6010BD00002DE9F0418846274C8B
:1030B000274D061E4FF480514FF400570EDD0122BC
:1030C0002046FDF7B7FF002239462046FDF7B2FF44
:1030D000304601F0C3FEFA3029680EE00022204697
:1030E000FDF7A8FF012239462046FDF7A3FF304631
:1030F00001F0B4FE296800F5C87048634FF48041C0
:103100004E00B8F1000F0EDD01222046FDF792FFC0
:10311000002231462046FDF78DFF404601F09EFE1D
:10312000FA3029680EE000222046FDF783FF0122D5
:1031300031462046FDF77EFF404601F08FFE2968AC
:1031400000F5C8700864BDE8F0810000000C014083
:103150001C0200202DE9F04186B08046012504A81C
:10316000CDE9000564242B467522D0210294404607
:10317000FEF730F89DF81000682803D0012006B053
:10318000BDE8F081002703AE8DF80C700096CDE904
:10319000015401236B22D0214046FEF743F907205A
:1031A0008DF80C000096CDE9015401231922D0219D
:1031B0004046FEF737F98DF80C700096CDE90154C2
:1031C00001231C22D0214046FEF72CF98DF80C700B
:1031D0000096CDE9015401231B22D0214046FEF781
:1031E00021F90020CBE700002DE9F04F89B00C4613
:1031F00064230E2204A98DE80E0001233B22D02176
:10320000FDF7E8FFBDF8100040BA00B22080BDF81D
:10321000121049BA09B261808946BDF8141049BA42
:1032200009B2A1808846BDF8161049BA0FFA81FA92
:10323000BDF8181049BA0FB22784BDF81A1049BA60
:103240000EB26684BDF81C1049BA0DB2A584FDF714
:10325000FDF96FF00D0B5A46FDF7D8F9C4E90201EC
:103260004846FDF7F3F95A46FDF7D0F9C4E90401E1
:103270004046FDF7EBF90022614BFDF758F9C4E930
:1032800006015046FDF7D9F95E49FCF7F9FF5E49A2
:10329000FCF76CFF20643846FDF7D8F95B4F00223D
:1032A0003B46FDF744F9C4E90A013046FDF7CEF983
:1032B00000223B46FDF73BF9C4E90C012846FDF727
:1032C000C5F900223B46FDF732F9C4E90E01FDF7CE
:1032D000B7FE4F4D2968401AFDF7C9F900224D4B42
:1032E000FDF725F981468A46FDF7AAFE2860B4F964
:1032F0000010B4F90400494300FB0010FDF7A6F9E3
:1033000001F0B0FD002205460E461346FDF7D6F942
:1033100010D0B4F90200FDF799F92A463346FDF7BB
:1033200006F901F063FB3C4A3C4BFDF78EF807467B
:10333000884601E00027B846B4F90400FDF786F995
:103340000646B4F900000D464042FDF77FF93246CB
:103350002B4601F05BFC304A304BFDF776F8DFF886
:10336000C0B005460E4600225B46FDF7A7F906D21F
:10337000D4E9140100222B4BFDF7B8F90DD300223C
:10338000284B28463146FDF7B1F90DD2D4E9140196
:1033900000225B46FDF792F906D21D485030C0E985
:1033A0000656C4E914560DE0CDE9029AD4E90C01A1
:1033B000CDE9000116482A4633465030FFF798FD04
:1033C000C4E91401D4E9140121F000410022154B95
:1033D000FDF78CF903D2E16A81F00041E162CDE9A9
:1033E000029AD4E90A01CDE9000109483A46434668
:1033F0000830FFF77DFDC4E9120109B0BDE8F08F88
:103400000029CC400000AA43B81E12420060604070
:10341000B800002000408F40F8C1631ADCA54C4082
:10342000008056C000805640094808B5416941F007
:10343000010141614069002200F001000090114645
:103440000F20FEF71DF9BDE808400F20FEF70AB96E
:10345000001002402DE9F04786B000242D4800946A
:10346000019402940394816941F0100181618169A2
:1034700001F010010491816941F0200181618169AD
:1034800001F020010491816941F0040181618169A9
:1034900001F004010491816941F0080181618069B2
:1034A000DFF8748000F008004FF40055049000220B
:1034B00029464046FDF7BEFDDFF8609000226021FE
:1034C0004846FDF7B7FDDFF858A04FF470470022DB
:1034D00039465046FDF7AEFD0095022601250396BC
:1034E000CDE9015469464046FDF7B4FC6020CDE9C2
:1034F0000005CDE9024669464846FDF7ABFC00975A
:103500000396CDE9015469465046FDF7A3FC06B089
:10351000BDE8F087001002400010014000080140A3
:10352000000C01400D4810B50B4901600C49416089
:1035300000214FF480428160C0E903124161816142
:10354000C1610162FDF782FD002803D0BDE8104093
:10355000FDF7C0BA10BD000000580040C8010020AF
:10356000801A060010B596B000240F9410941194A0
:10357000129413941C2168461494FCF7ECFD20214E
:1035800007A8FCF7E8FD2C482A49C0E9001441F6D9
:103590001F41C0E90241046144618461FEF792FB6E
:1035A00008B1FDF797FA4FF480500F900FA9224809
:1035B000FEF726FC08B1FDF78DFA1F48FEF7AAFEBC
:1035C00008B1FDF787FA139413A91B481494FEF76A
:1035D00045FB08B1FDF77EFA6020CDE900040294B6
:1035E0000394049405940022694613480694FEF758
:1035F0002EFE08B1FDF76EFA0C2269460E48FEF762
:1036000026FE08B1FDF766FA0794089409944FF472
:1036100000500A94CDE90B4007A907480E94FEF725
:10362000F3FA08B1FDF756FA0348FEF7E9FD16B0C4
:1036300010BD0000002C01401C02002010B58CB011
:1036400024216846FCF787FD0024154809944FF0B3
:1036500080410A94C0E900144FF6FF71C0E90241AD
:10366000046184610320CDE900040120CDE9020456
:103670000494CDE905400794694609480894FEF78B
:103680002AFC08B1FDF726FA099409A904480A940E
:10369000FEF7E4FA002801D0FDF71CFA0CB010BDCB
:1036A0006402002010B586B00024184800940194EC
:1036B00002940394049414490594016040F2CF21CC
:1036C000C0E9011440F2F311C0E9031480218161C3
:1036D000FEF7F8FA08B1FDF7FDF94FF480500090BD
:1036E00069460A48FEF78CFB08B1FDF7F3F904942C
:1036F00004A906480594FEF7B1FA002801D0FDF7A9
:10370000E9F906B010BD000000040040AC02002042
:1037100010B58CB024216846FCF71DFD0024164826
:10372000099414490A94C0E900144FF6FF71C0E9E6
:103730000241046184610320CDE900040120CDE948
:1037400002040494CDE90540079469460A480894A8
:10375000FEF7C1FB08B1FDF7BDF9099409A90648B8
:103760000A94FEF77BFA002801D0FDF7B3F90CB0FC
:1037700010BD000000080040F40200200C4810B505
:103780000A4901604FF4E1314160002181600C225F
:10379000C160C0E904128161C161FFF72FF8002800
:1037A00003D0BDE81040FDF795B910BD00380140C9
:1037B0003C0300200C4810B50A4901604FF4E13188
:1037C0004160002181600C22C160C0E90412816166
:1037D000C161FFF713F8002803D0BDE81040FDF7E2
:1037E00079B910BD0044004080030020FEE7FEE7E9
:1037F000704770472DE9F041194C0646E06960B307
:10380000D4E90C010844616A00EBD07001EB600060
:103810006062FCF71BFF134A134BFCF788FE134A48
:10382000134BFCF712FEFCF779FF05463046FCF718
:1038300004FF07462946FCF7EBFC0E49FCF7EEFCBB
:10384000064638462946FCF7E6FCB0F17E5F04DA0E
:1038500010F1814F01D20026E6613046BDE8F081CB
:1038600000000020B81E85EB51108C40295C8FC2EF
:10387000F568344000007A44044A0168914202DC51
:10388000034A914200D902607047000000401C4684
:1038900000401CC6FDF78EBE30B58FB028216846AB
:1038A000FCF759FC14210AA8FCF755FC0121080477
:1038B000CDE900100024029402250491CDE90750BF
:1038C0004FF4E01009906846FDF7F8FF08B172B6B2
:1038D000FEE70F20CDE90A054FF48060CDE90C40EA
:1038E00002210AA80E94FDF7FDFE002801D072B651
:1038F000FEE70FB030BD70470148FEF7CDBB0000BA
:10390000AC020020F0B50268164B174C174D4FF073
:103910008047984205D0B84203D0A04201D0A842C7
:1039200003D122F070064A683243984205D0B8426B
:1039300003D0A04201D0A84203D122F44074CA6847
:1039400022434C6922F08002224302608A68C262EC
:103950000A688262984201D10969016301214161CB
:10396000F0BD0000002C01400004004000080040B1
:1039700010B501F01F030121046A99408C430462D1
:10398000016A9A401143016210BD10B5846842EA91
:10399000032224F47F440A432243826010BD8268DC
:1039A00022F070020A4342F0070181607047000074
:1039B00030B5026A22F001020262026A4368846939
:1039C00024F073050C682C4322F002058A682A4310
:1039D0000A4DA8420BD122F00805CA6823F44073AF
:1039E0002A434D6922F004021D438B692B43436037
:1039F000846149684163026230BD0000002C0140CF
:103A000030B5026A22F010020262026A43688469D9
:103A10000D6824F4E64444EA05248D6822F020026F
:103A200042EA05120B4DA8420ED1CD6822F0800269
:103A300042EA05124D6923F4406343EA85038D6928
:103A400022F0400243EA8503436084614968816350
:103A5000026230BD002C014030B5026A22F480724F
:103A60000262036A4268C46923F4007324F0730598
:103A70000C682C438D6843EA05230C4DA8420ED1F7
:103A8000CD6823F4006343EA05234D6922F44052D4
:103A900042EA05128D6923F4806342EA051242600E
:103AA000C4614968C163036230BD0000002C01405D
:103AB00030B5026A22F480520262046A4268C36925
:103AC0000D6823F4E64343EA05238D6824F400548B
:103AD00044EA0534064DA84204D14D6922F48042DF
:103AE00042EA85124260C36149680164046230BDE4
:103AF000002C014010B5036A046A24F0010404623A
:103B0000846924F0F00444EA021423F00A020A4310
:103B10008461026210BD10B5036A23F010030362D2
:103B20008369046A23F4704343EA023224F0A00359
:103B300043EA01118261016210BD000070B50646C2
:103B40000846FCF77AFD094D6969FCF767FB0446F6
:103B50003046FCF772FD2969FCF760FB2146FCF753
:103B600005FBBDE87040FCF78FBD0000640000203D
:103B700010B5406A0021C185C184FEF737FD10BD34
:103B800070B5446A2068406994F83D10C0F3C010D5
:103B90000025212904D118B1E584204600F067F8FA
:103BA0002068406994F83E10C0F38010222904D1A7
:103BB00018B1E585204600F042F8206C40F0100076
:103BC00020642046FEF712FD70BD10B50146406A24
:103BD0000968096889061BD40021C1850168CA6883
:103BE00022F48072CA6001684A6922F001024A61C7
:103BF00001684A6922F040024A61202180F83E10A3
:103C0000016B012904D10168CA6822F01002CA6060
:103C1000016B012902D0FEF7D1FE10BD818DFEF7A8
:103C2000E4FC10BD10B5406A016B012902D0FEF71B
:103C30001BFF10BD818D4908FEF7D7FC10BD016840
:103C4000CA6822F49072CA6001684A6922F00102CF
:103C50004A61016B012904D10168CA6822F010028F
:103C6000CA60202180F83E1000210163704701687E
:103C7000CA6822F0C002CA60202180F83D10704757
:103C800008B590F83E10222901D0022008BD8268B4
:103C90004FF480539A4201D1016921B1816A9A425D
:103CA0001BD04AB10AE00268816A5268C2F3080276
:103CB0000A80816A891C08E0026972B10268526850
:103CC00002F07F020A70816A491C8162C18D491E1F
:103CD0000904090CC18503D019E002685268F1E7B4
:103CE0000168CA6822F02002CA600168CA6822F42A
:103CF0008072CA6001684A6922F001024A6120218B
:103D000080F83E10016B012903D0FEF757FE00201A
:103D100008BD002101630168CA6822F01002CA6070
:103D200001680A68D20602D50A6849680091818D47
:103D3000FEF75BFCEBE7000070B504460068016924
:103D4000E26821F44051114301612169A0680843F0
:103D5000616908432168CA6841F20C639A430243CF
:103D6000CA6020684169A26921F440711143416130
:103D70001E492068884202D1FDF75AFD01E0FDF797
:103D800047FD00EBC00101EB001260686421800078
:103D9000B2FBF0F3B3FBF1F36FF018067343B2FB21
:103DA000F0F5B2FBF0F605EB8305322303EB0515C6
:103DB000B5FBF1F5B6FBF1F605F0F00505EB0615E0
:103DC000B2FBF0F6B2FBF0F0B0FBF1F06FF01802CE
:103DD000504306EB800003EB0010B0FBF1F02168CC
:103DE00000F00F002844886070BD000000380140DA
:103DF00038B5816282850025134604460564222079
:103E000084F83E00A26B13489062A26B1248D06205
:103E1000A26B12481063A06B0A4645632168A06B31
:103E2000091DFCF7DFFF206801684168009184F8F4
:103E30003C50C16841F48071C1602068416941F023
:103E4000010141612068416941F040014161002068
:103E500038BD0000CB3B0008253C0008813B000832
:103E600081628285C28500210164222280F83E2081
:103E700080F83C100168CA6842F48072CA60016828
:103E80004A6942F001024A610068C16841F02001BC
:103E9000C160002070472DE9F041984617460E4654
:103EA0000446069D1DE0681C1BD02DB1FDF7C8F827
:103EB000A0EB0800A84214D92068C16821F4D07191
:103EC000C1602068416921F001014161202084F82E
:103ED0003D0084F83E00002084F83C000320BDE84B
:103EE000F0812068006836EA000004D00020B84263
:103EF000D9D00020F3E70120F9E70000084882B09C
:103F000000680168C943C90605D4016840680549CD
:103F1000009001200860024802B0FEF769BB000073
:103F20003C030020500000200148FEF761BB000068
:103F300080030020FEE700004FF4FA6370B590FBA9
:103F4000F3F0204C11440E1A1D4DA06BFCF775FBCD
:103F50002946FCF763F905463046FCF76EFB01463F
:103F60001948FCF75BF92946FCF700F9FCF78CFBD4
:103F7000A063216B054608442063B0F57A7F01DD1C
:103F8000124806E010F57A7F01DA114801E0FCF7EB
:103F900054FBFCF779FB2063FCF74FFBE168FCF76F
:103FA0003DF906462846FCF748FBA168FCF736F9C0
:103FB0003146FCF7DBF8FCF767FBA06270BD000040
:103FC000CDCC4C3F64000020CCCC4C3E00007A4469
:103FD00000007AC42DE9F0410A4D0E46074611460D
:103FE0006868FCF71BF9044631463846FCF713F9BC
:103FF0002968FCF713F92146FCF7B8F8BDE8F04151
:10400000FCF742BB640000200FB4054B10B503A9B8
:10401000044A029800F066F910BC5DF814FB000039
:10402000A94D000850010020490050EAC12018BFE6
:1040300004204A0D18BF40F0010040F2FF72B2EBBD
:10404000515F08BF40F00200012808BF05207047FB
:104050000907090E002804DB00F1E02080F80014B5
:10406000704700F00F0000F1E02080F8141D704749
:104070002DE9F0414F1E00EBC7010446D1E90001D4
:1040800015461E4637F006020DD02A463346FCF789
:10409000DCF97F1E04EBC703D3E90023FCF72EF9FC
:1040A00037F00602F1D1022F25D0042F13D0062FAE
:1040B00018BFBDE8F0812A463346FCF7C6F9D4E9BB
:1040C0000A23FCF71BF92A463346FCF7BEF9D4E96C
:1040D0000823FCF713F92A463346FCF7B6F9D4E96E
:1040E0000623FCF70BF92A463346FCF7AEF9D4E970
:1040F0000423FCF703F92A463346FCF7A6F9D4E972
:104100000223FCF7FBF82A463346FCF79EF9D4E974
:104110000023BDE8F041FCF7F1B80122FCF776BAC4
:10412000FCF7ECB8024A00201107FCF76FBA000058
:1041300001FDFFFF02E008C8121F08C1002AFAD1E2
:1041400070477047002001E001C1121F002AFBD117
:1041500070470000014908607047000054010020CA
:104160002DE9FF5F82B00021DDE90430020DDDF8AA
:1041700040B0034318D044F61050A2F2FF3242433D
:104180001514119801281FD0A5EB0B00401C5FEA05
:10419000000A4FF000064E4FDFF83891B046504607
:1041A00015D5CAF1000413E0119801244AA301288F
:1041B00001D16FEA0B010298119AC0E90031C0E900
:1041C000024206B0BDE8F09FCBF10000DFE70446F5
:1041D0000021404A491842EB0450CDE9001012E09A
:1041E000E00707D032463B4640464946FCF72DF9EA
:1041F0008046894632463B4610461946FCF725F96B
:1042000006460F466410002CEAD1DDE90401DDE921
:104210000023BAF1000F06DAFCF717F942464B46C5
:10422000FCF713F905E0FCF782F942464B46FCF730
:104230007EF904460E460022284BFCF757FA03D8B5
:104240004FF0FF30014607E00022254B2046314663
:10425000FCF754F8FCF7CBFB102409E0002C0ADB38
:104260000A220023FCF78CFA039B30321A55641E95
:1042700050EA0102F2D1641C039AC4F11103144400
:10428000119A012A03D0012208430DD10AE0084304
:1042900004D000204FF0110B119072E7A3EB0B0537
:1042A0006D1E0DE05B4504DD4FF0000205F10105D8
:1042B00004E003DA4FF00002A5F10105002AECD07A
:1042C00002981199C0E90231C0E9004579E7000080
:1042D000000014400000F03F300000000000F043F8
:1042E0000000E03F2DE9FF4F95B09A46884606460C
:1042F0000025EEE1252877D100242746F94A01213F
:10430000039400E0044316F8013F203B01FA03F058
:104310001042F7D130782A2811D06FF02F0330786F
:10432000A0F13002092A16D8039A44F0020402EBE5
:10433000820203EB42021044761C0390EFE758F828
:10434000042B0392002A03DA504244F400540390F1
:1043500044F00204761C30782E2816D116F8010F8E
:1043600044F004042A280DD06FF02F023078A0F119
:104370003003092B09D807EB870302EB4303C71867
:10438000761CF3E758F8047B761C30786C280FD045
:1043900006DC4C2817D068280DD06A2814D104E018
:1043A000742810D07A280FD10DE044F400140AE0EC
:1043B00044F4801401E044F440147278824202D143
:1043C00004F58014761C761C307866280BD013DC3C
:1043D000582877D009DC002875D04528F6D0462823
:1043E000F4D047281AD193E118E0632835D0642827
:1043F00079D0652812D18BE1702873D008DC67284A
:10440000F1D069286FD06E280DD06F2806D1ACE0AE
:1044100073282CD0752874D0782853D05246179919
:1044200090476D1C54E1C4F30250022809D00328C0
:104430000DD0D8F8001004280DD00D6008F1040844
:1044400046E1D8F80010EA17C1E90052F6E7D8F8BB
:1044500000100D80F2E70D70F0E718F8041B8DF8DE
:10446000001000208DF80100EB46012003E058F811
:1044700004BB4FF0FF3061074FF0000102D40DE0A4
:1044800009F101018946B9420FDA8145F8DB1BF8D1
:1044900009100029F4D108E009F10101894681429F
:1044A000FADB1BF809100029F6D103985346A0EB5C
:1044B000090721463846179A00F080FA284400EB95
:1044C000090507E044E008E10DE01BF8010B524646
:1044D00017999047B9F10109F7D25346214638465A
:1044E000179AF2E039E00A21C4F302524FF0000BB0
:1044F0000091022A06D058F8040BC117032A09D0EC
:104500000AE023E008F1070020F00702F2E80201C8
:10451000904605E000B2C117042A01D140B2C1178C
:10452000002906DA0A460021404261EB02012D22F1
:1045300002E0220504D52B228DF80420012203E09D
:10454000E20701D02022F7E7914657E00A2100E078
:1045500010214FF0000B00910BE010214FF0000BE9
:1045600044F004040827009103E008204FF0000BFA
:104570000090C4F30252022A05D058F8040B00211F
:10458000032A08D008E008F1070020F00702F2E84B
:104590000201904603E080B2042A00D1C0B24FF07D
:1045A000000922072AD53278702A07D0DDF800C02A
:1045B0008CF0100C5CEA0B0C05D00EE040228DF85C
:1045C0000420012208E050EA010306D030238DF8D0
:1045D00004308DF8052002229146009B83F00803E9
:1045E00053EA0B030AD150EA010201D1620705D553
:1045F00030228DF804204FF001097F1E3278582AAE
:1046000004D039A20C920CAA02920BE03BA2F9E76B
:104610005B46009AFCF7B4F80C9B9B5C029A521E16
:104620000292137050EA0102F2D1029804A9081A0A
:1046300000F1200B600702D524F4803400E001274C
:104640005F4502DDA7EB0B0000E0002000EB0B0153
:10465000009003984944401A0390E00306D453465F
:104660002146179A039800F0A9F90544002706E0AF
:1046700001A85246C05D179990476D1C7F1C4F459D
:10468000F6DBE0030CD553462146179A039800F059
:1046900095F9054404E030205246179990476D1C67
:1046A0000099481E00900029F5DC08E00298029964
:1046B00052460078491C0291179990476D1CBBF136
:1046C0000001ABF1010BF1DC5BE100F065F90544A1
:1046D000761C307800287FF40DAE19B02846BDE86E
:1046E000F08F00000928010030313233343536377D
:1046F000383961626364656600000000303132332E
:1047000034353637383941424344454600000000CD
:10471000600700D4062708F1070020F00700F0E842
:104720000223804603F0004C5FEA0C0001D097A002
:1047300009E0200501D596A005E0E00701D095A08D
:1047400001E0AFF24C001390307823F0004365286D
:104750000CD006DC452809D046281DD047287FD13B
:104760003BE0662818D067287AD136E00021112F67
:1047700001DB112000E0781CCDE9000104A90CA8A0
:10478000FFF7EEFCDDE90D010C9A4FF0000B07F18D
:104790000109109200914EE04FF000400097CDE9E2
:1047A000011004A90CA8FFF7DBFCDDE90D020C9B4E
:1047B0000F994FF0000B91461093009211B9791C9C
:1047C00000EB0109B7EB090003D4C0F1FF3B07F18F
:1047D0000109A9EB0700019042E0012F00DA01274F
:1047E0000021112F01DD112000E03846CDE9000144
:1047F00004A90CA8FFF7B4FCDDE90D010C9A0091A7
:104800004FF0000BB946109221070FD4009A4A4589
:1048100003DA914601E0A9F10109B9F1010F05DDC3
:10482000109AA9F10101515C3029F4D0B84202DAA2
:1048300010F1040F03DA0121CDE9011010E0002886
:1048400003DC8344A9EB000102E0411C494500DD83
:104850008946A0EB0B00401C01904FF000400290F5
:10486000200705D40198484502DB4FF0FF30019046
:1048700000208DF84B0002980DF14B07B0F1004F6E
:1048800025D002200C902B200D90029800280CDAE5
:10489000404202902D200D9007E00A210298FBF77C
:1048A00059FF3031029007F8011D0C99481E0C90F9
:1048B0000029F2DC02980028EFD1791E0D980870CB
:1048C000307800F0200040F0450007F8020D11A8F4
:1048D000C01BC01D02901398007800B1012000EBAE
:1048E0000901019801EBE071029801440398401A14
:1048F000401E0390E00306D453462146179A0398BE
:1049000000F05CF805441398007818B152461799E6
:1049100090476D1CE00323D553462146179A039810
:1049200000F04CF805441BE0BBF1000F07DB0098DA
:10493000584504DD1098179910F80B0001E01799FD
:1049400030205246904701980BF1010B401E05F1B3
:104950000105019004D12E205246179990476D1CF5
:10496000B9F10001A9F10109DEDC05E017F8010B3E
:104970005246179990476D1C0299481E02900029D3
:10498000F4DC53462146179A03989EE62D0000005A
:104990002B000000200000002DE9F0410446002516
:1049A0001E461746880404D405E039462020B04747
:1049B0006D1C641EF9D52846BDE8F0812DE9F04153
:1049C000044600251E469046C80301D5302700E066
:1049D0002027880404D505E041463846B0476D1CC1
:1049E000641EF9D52846BDE8F08100002DE9F84F96
:1049F00004460D4621F0004000917349814211DCCC
:104A00007249884201DC06D12CB120462946BDE816
:104A1000F84FFFF782BB6E48002DCCBF6D496E4941
:104A2000BDE8F88F6D49814211DD6D498142D8BFE3
:104A30004FF0FF366DDD20462946FFF7F5FA0428D2
:104A400008BFFFF76FFB20462946BDE8F88F654990
:104A5000654F25F00045814233DD6449814219DD0F
:104A6000002632464FF0804320462946FBF746FC9D
:104A700080468A46012220462946FBF7C7FD0022D0
:104A80003B46FBF7DCFC42465346FBF750FD044631
:104A90000D463EE001260022BA463B462046294606
:104AA000FBF72CFC80460F46002253462046294641
:104AB000FBF7C5FC42463B46FBF739FD04460D4675
:104AC00027E04B4981421BDDDFF828A102260022A6
:104AD000534620462946FBF7B8FC00223B46FBF72D
:104AE0000DFC80460F460022534620462946FBF720
:104AF000A6FC42463B46FBF71AFD04460D4608E07D
:104B0000032622462B4600203B49FBF710FD0446B6
:104B10000D4622462B4610461946FBF796FC8B465F
:104B2000824602460B46FBF790FC07460246334896
:104B300088460B4606217844FFF79AFA52465B46B0
:104B4000FBF783FC82462E488B463A4643460521B6
:104B50007844FFF78DFA3A464346FBF776FC024667
:104B60000B46002E504659460CDAFBF7C7FB22468F
:104B70002B46FBF76AFC01B022462B46BDE8F04FFE
:104B8000FBF760BCFBF7BAFB22462B46FBF75DFC4C
:104B90001C4A7A4402EBC603D3E90023FBF74FFC1F
:104BA00022462B46FBF74BFC174A7A4402EBC6031E
:104BB000D3E90023FBF746FC009A002AB8BF81F036
:104BC0000041BDE8F88F0000000010440000F07FB5
:104BD000182D4454FB21F93FFB21F9BF0000DC3FB5
:104BE0000000203E0000F33F0000F03F0000E63FE1
:104BF000008003400000F83F0000F0BFF603000013
:104C0000B4030000520300001A0300002DE9F04D28
:104C10009446CCF1000423F000464CEA0404594FBA
:104C200046EAD4749A46884621F00042BC4206D82F
:104C3000454240EA050442EAD474BC4204D9BDE8C6
:104C4000F04D6246FFF76CBAAAF14055A5F17F65B9
:104C500055EA0C040BD0022404EAAA744A4DDFF88A
:104C60002CE144EAD87452EA000B04D00CE0BDE811
:104C7000F04DFFF7BBBE002C14BF012CBDE8F08D3A
:104C8000022C30D0032C32D056EA0C0B0AD0BE4294
:104C900020D1BA4209D126F0804622F08042334624
:104CA000114617E000291ADB25E0DFF8E4B0FB44E9
:104CB000002C04BFDBE90001BDE8F08D012C02BF30
:104CC000DBE9000181F00041BDE8F08D022C0AD043
:104CD000032C0CD0BA4212D1B8F1000F0BDA2A48DB
:104CE0002C49BDE8F08D28462B49BDE8F08D2846BB
:104CF0007146BDE8F08D24482849BDE8F08D921B2F
:104D000012153C2AC4BF204F244E10DCBAF1000F0C
:104D1000BEBF12F13C0F00273E4608DB6246FBF7A0
:104D200006FC21F00041FFF761FE07460E4694B1F4
:104D3000012C08BF86F000460DD0194A194B022CF1
:104D40003846314615D0FBF77AFB2A46BDE8F04DD0
:104D5000114BFBF774BB0022134638463146FBF774
:104D6000ADFC04BF0220FFF7F5F938463146BDE837
:104D7000F08DFBF764FB2A46BDE8F04D064BFBF7D0
:104D800061BB00000000F07F182D4454FB2109C0D6
:104D9000AE020000FB21F9BFFB210940FB21F93FD6
:104DA000075C143326A6A13C13B54FF0FF33012254
:104DB00069460248FDF75AFE00981CBD3C030020DE
:104DC000FCF700FCFEF768FDFEF744FBFEF72CFB4A
:104DD000FEF7C8FBFEF732FCFEF79AFCFEF7EAFC92
:104DE000FEF760FCFEF7CAFCFEF79CFB3C21124874
:104DF000FDF70AF93C211148FDF706F91048FCF7C8
:104E0000D3FF012220210F48FCF714F90E48006857
:104E1000C16841F01001C16001220C490C48FDF746
:104E2000B8FD14220B490848FDF79EFD0A48FEF71D
:104E300091F90128FAD0FEE764020020F402002074
:104E4000AC020020000801403C0300204800002084
:104E50008003002058010020C8010020002800DC49
:104E6000404270472DE9F04106460F46FBF76EFDC4
:104E7000041E0D4618BF0120284320F00040C0F159
:104E80007F6000F1E040C00F0ED0301C18BF012041
:104E9000384320F00040C0F17F6000F1E040C00FD7
:104EA00004BF0120FFF756F920462946BDE8F081EE
:104EB00000000000000000000102030406070809CA
:104EC00000000000010203044FBB610567ACDD3F39
:104ED000182D4454FB21E93F9BF681D20B73EF3F21
:104EE000182D4454FB21F93FE2652F227F2B7A3C99
:104EF000075C143326A6813CBDCBF07A8807703C52
:104F0000075C143326A6913CC4EB98999999C9BFC4
:104F1000711623FEC671BCBF6D9A74AFF2B0B3BFF9
:104F20009AFDDE522DDEADBF2F6C6A2C44B4A2BFB9
:104F30000D5555555555D53FFF8300922449C23F25
:104F40006E204CC5CD45B73F513DD0A0660DB13F59
:104F5000EB0D76244B7BA93F11DA22E33AAD903F6B
:104F60000000000000000000884F00080000002042
:104F700058010000440A0008C44F000858010020EE
:104F8000B006000044410008011C320102336429CC
:104F90003882103324F427E1434260653D23874380
:104FA000000B47803F295C8FBD9A99993E36E04DB2
:104FB00062503F2DC0749368082DE051B89E0809D7
:044FC00076485100DE
:04000005080000ED02
:00000001FF
